{"contracts/geoBlockchain.sol":{"geoBlockchain":{"abi":[{"inputs":[{"internalType":"address","name":"","type":"address"}],"name":"Users","outputs":[{"internalType":"contract User","name":"user","type":"address"},{"internalType":"enum geoBlockchain.UserType","name":"userType","type":"uint8"}],"stateMutability":"view","type":"function"},{"inputs":[{"internalType":"string","name":"_userName","type":"string"},{"internalType":"string","name":"_Address","type":"string"},{"internalType":"string","name":"_contactNumber","type":"string"},{"internalType":"string","name":"_location","type":"string"},{"internalType":"string","name":"_AadharId","type":"string"},{"internalType":"uint256","name":"_type","type":"uint256"}],"name":"createUser","outputs":[],"stateMutability":"nonpayable","type":"function"},{"inputs":[{"internalType":"address","name":"addr","type":"address"}],"name":"getInfo","outputs":[{"components":[{"internalType":"contract User","name":"user","type":"address"},{"internalType":"enum geoBlockchain.UserType","name":"userType","type":"uint8"}],"internalType":"struct geoBlockchain.userInfo","name":"","type":"tuple"}],"stateMutability":"view","type":"function"},{"inputs":[],"name":"name","outputs":[{"internalType":"string","name":"","type":"string"}],"stateMutability":"view","type":"function"}],"evm":{"bytecode":{"linkReferences":{},"object":"60c0604052600560808190526467656f626360d81b60a09081526100269160009190610039565b5034801561003357600080fd5b5061010d565b828054610045906100d2565b90600052602060002090601f01602090048101928261006757600085556100ad565b82601f1061008057805160ff19168380011785556100ad565b828001600101855582156100ad579182015b828111156100ad578251825591602001919060010190610092565b506100b99291506100bd565b5090565b5b808211156100b957600081556001016100be565b600181811c908216806100e657607f821691505b6020821081141561010757634e487b7160e01b600052602260045260246000fd5b50919050565b610ce98061011c6000396000f3fe60806040523480156200001157600080fd5b5060043610620000525760003560e01c806306fdde03146200005757806374c15d31146200007957806399b956a01462000092578063ffdd5cf114620000da575b600080fd5b6200006162000100565b6040516200007091906200067a565b60405180910390f35b620000906200008a36600462000479565b62000196565b005b620000ca620000a336600462000449565b6001602052600090815260409020546001600160a01b03811690600160a01b900460ff1682565b60405162000070929190620005ce565b620000f1620000eb36600462000449565b62000313565b6040516200007091906200068f565b600080546200010f90620006bc565b80601f01602080910402602001604051908101604052809291908181526020018280546200013d90620006bc565b80156200018e5780601f1062000162576101008083540402835291602001916200018e565b820191906000526020600020905b8154815290600101906020018083116200017057829003601f168201915b505050505081565b620001a5600280546001019055565b6000620001b160025490565b9050600030828989898989604051620001ca90620003ac565b620001dc9796959493929190620005ed565b604051809103906000f080158015620001f9573d6000803e3d6000fd5b5033600090815260016020819052604090912080546001600160a01b0319166001600160a01b0384161790559091508314156200025a57336000908152600160205260408120805460ff60a01b1916600160a01b835b021790555062000309565b82600214156200028b57336000908152600160208190526040909120805460ff60a01b1916600160a01b836200024f565b8260031415620002bd5733600090815260016020526040902080546002919060ff60a01b1916600160a01b836200024f565b60405162461bcd60e51b815260206004820152601760248201527f57726f6e672075736572207479706520656e7465726564000000000000000000604482015260640160405180910390fd5b5050505050505050565b60408051808201909152600080825260208201526001600160a01b03828116600090815260016020908152604091829020825180840190935280549384168352919290830190600160a01b900460ff1660028111156200038357634e487b7160e01b600052602160045260246000fd5b6002811115620003a357634e487b7160e01b600052602160045260246000fd5b90525092915050565b6105a4806200071083390190565b600082601f830112620003cb578081fd5b813567ffffffffffffffff80821115620003e957620003e9620006f9565b604051601f8301601f19908116603f01168101908282118183101715620004145762000414620006f9565b816040528381528660208588010111156200042d578485fd5b8360208701602083013792830160200193909352509392505050565b6000602082840312156200045b578081fd5b81356001600160a01b038116811462000472578182fd5b9392505050565b60008060008060008060c0878903121562000492578182fd5b863567ffffffffffffffff80821115620004aa578384fd5b620004b88a838b01620003ba565b97506020890135915080821115620004ce578384fd5b620004dc8a838b01620003ba565b96506040890135915080821115620004f2578384fd5b620005008a838b01620003ba565b9550606089013591508082111562000516578384fd5b620005248a838b01620003ba565b945060808901359150808211156200053a578384fd5b506200054989828a01620003ba565b92505060a087013590509295509295509295565b600381106200057c57634e487b7160e01b600052602160045260246000fd5b9052565b60008151808452815b81811015620005a75760208185018101518683018201520162000589565b81811115620005b95782602083870101525b50601f01601f19169290920160200192915050565b6001600160a01b0383168152604081016200047260208301846200055d565b60018060a01b038816815286602082015260e0604082015260006200061660e083018862000580565b82810360608401526200062a818862000580565b9050828103608084015262000640818762000580565b905082810360a084015262000656818662000580565b905082810360c08401526200066c818562000580565b9a9950505050505050505050565b60208152600062000472602083018462000580565b81516001600160a01b031681526020808301516040830191620006b5908401826200055d565b5092915050565b600181811c90821680620006d157607f821691505b60208210811415620006f357634e487b7160e01b600052602260045260246000fd5b50919050565b634e487b7160e01b600052604160045260246000fdfe608060405234801561001057600080fd5b506040516105a43803806105a483398101604081905261002f9161021c565b600680546001600160a01b0319166001600160a01b038916179055600086905584516100629060019060208801906100bf565b5083516100769060029060208701906100bf565b50825161008a9060039060208601906100bf565b50815161009e9060049060208501906100bf565b5080516100b29060059060208401906100bf565b5050505050505050610353565b8280546100cb90610302565b90600052602060002090601f0160209004810192826100ed5760008555610133565b82601f1061010657805160ff1916838001178555610133565b82800160010185558215610133579182015b82811115610133578251825591602001919060010190610118565b5061013f929150610143565b5090565b5b8082111561013f5760008155600101610144565b80516001600160a01b038116811461016f57600080fd5b919050565b600082601f830112610184578081fd5b81516001600160401b038082111561019e5761019e61033d565b604051601f8301601f19908116603f011681019082821181831017156101c6576101c661033d565b816040528381526020925086838588010111156101e1578485fd5b8491505b8382101561020257858201830151818301840152908201906101e5565b8382111561021257848385830101525b9695505050505050565b600080600080600080600060e0888a031215610236578283fd5b61023f88610158565b602089015160408a015191985096506001600160401b0380821115610262578485fd5b61026e8b838c01610174565b965060608a0151915080821115610283578485fd5b61028f8b838c01610174565b955060808a01519150808211156102a4578485fd5b6102b08b838c01610174565b945060a08a01519150808211156102c5578384fd5b6102d18b838c01610174565b935060c08a01519150808211156102e6578283fd5b506102f38a828b01610174565b91505092959891949750929550565b600181811c9082168061031657607f821691505b6020821081141561033757634e487b7160e01b600052602260045260246000fd5b50919050565b634e487b7160e01b600052604160045260246000fd5b610242806103626000396000f3fe608060405234801561001057600080fd5b50600436106100625760003560e01c80633aeaccf514610067578063516f279e14610085578063589759191461008d57806370019b35146100a457806376af633c146100ac578063926258b9146100b4575b600080fd5b61006f6100bc565b60405161007c919061017e565b60405180910390f35b61006f61014a565b61009660005481565b60405190815260200161007c565b61006f610157565b61006f610164565b61006f610171565b600280546100c9906101d1565b80601f01602080910402602001604051908101604052809291908181526020018280546100f5906101d1565b80156101425780601f1061011757610100808354040283529160200191610142565b820191906000526020600020905b81548152906001019060200180831161012557829003601f168201915b505050505081565b600480546100c9906101d1565b600180546100c9906101d1565b600380546100c9906101d1565b600580546100c9906101d1565b6000602080835283518082850152825b818110156101aa5785810183015185820160400152820161018e565b818111156101bb5783604083870101525b50601f01601f1916929092016040019392505050565b600181811c908216806101e557607f821691505b6020821081141561020657634e487b7160e01b600052602260045260246000fd5b5091905056fea264697066735822122070fe31612767ccc5ece414e6fb6db721a8cae95961a5be5abdd6c66bf1a6d4e664736f6c63430008040033a2646970667358221220e03f8c523cc03c6b9a8b5c564ad58bdd9380b9e78c0ac0c111b8771cd06bd2e964736f6c63430008040033","opcodes":"PUSH1 0xC0 PUSH1 0x40 MSTORE PUSH1 0x5 PUSH1 0x80 DUP2 SWAP1 MSTORE PUSH5 0x67656F6263 PUSH1 0xD8 SHL PUSH1 0xA0 SWAP1 DUP2 MSTORE PUSH2 0x26 SWAP2 PUSH1 0x0 SWAP2 SWAP1 PUSH2 0x39 JUMP JUMPDEST POP CALLVALUE DUP1 ISZERO PUSH2 0x33 JUMPI PUSH1 0x0 DUP1 REVERT JUMPDEST POP PUSH2 0x10D JUMP JUMPDEST DUP3 DUP1 SLOAD PUSH2 0x45 SWAP1 PUSH2 0xD2 JUMP JUMPDEST SWAP1 PUSH1 0x0 MSTORE PUSH1 0x20 PUSH1 0x0 KECCAK256 SWAP1 PUSH1 0x1F ADD PUSH1 0x20 SWAP1 DIV DUP2 ADD SWAP3 DUP3 PUSH2 0x67 JUMPI PUSH1 0x0 DUP6 SSTORE PUSH2 0xAD JUMP JUMPDEST DUP3 PUSH1 0x1F LT PUSH2 0x80 JUMPI DUP1 MLOAD PUSH1 0xFF NOT AND DUP4 DUP1 ADD OR DUP6 SSTORE PUSH2 0xAD JUMP JUMPDEST DUP3 DUP1 ADD PUSH1 0x1 ADD DUP6 SSTORE DUP3 ISZERO PUSH2 0xAD JUMPI SWAP2 DUP3 ADD JUMPDEST DUP3 DUP2 GT ISZERO PUSH2 0xAD JUMPI DUP3 MLOAD DUP3 SSTORE SWAP2 PUSH1 0x20 ADD SWAP2 SWAP1 PUSH1 0x1 ADD SWAP1 PUSH2 0x92 JUMP JUMPDEST POP PUSH2 0xB9 SWAP3 SWAP2 POP PUSH2 0xBD JUMP JUMPDEST POP SWAP1 JUMP JUMPDEST JUMPDEST DUP1 DUP3 GT ISZERO PUSH2 0xB9 JUMPI PUSH1 0x0 DUP2 SSTORE PUSH1 0x1 ADD PUSH2 0xBE JUMP JUMPDEST PUSH1 0x1 DUP2 DUP2 SHR SWAP1 DUP3 AND DUP1 PUSH2 0xE6 JUMPI PUSH1 0x7F DUP3 AND SWAP2 POP JUMPDEST PUSH1 0x20 DUP3 LT DUP2 EQ ISZERO PUSH2 0x107 JUMPI PUSH4 0x4E487B71 PUSH1 0xE0 SHL PUSH1 0x0 MSTORE PUSH1 0x22 PUSH1 0x4 MSTORE PUSH1 0x24 PUSH1 0x0 REVERT JUMPDEST POP SWAP2 SWAP1 POP JUMP JUMPDEST PUSH2 0xCE9 DUP1 PUSH2 0x11C PUSH1 0x0 CODECOPY PUSH1 0x0 RETURN INVALID PUSH1 0x80 PUSH1 0x40 MSTORE CALLVALUE DUP1 ISZERO PUSH3 0x11 JUMPI PUSH1 0x0 DUP1 REVERT JUMPDEST POP PUSH1 0x4 CALLDATASIZE LT PUSH3 0x52 JUMPI PUSH1 0x0 CALLDATALOAD PUSH1 0xE0 SHR DUP1 PUSH4 0x6FDDE03 EQ PUSH3 0x57 JUMPI DUP1 PUSH4 0x74C15D31 EQ PUSH3 0x79 JUMPI DUP1 PUSH4 0x99B956A0 EQ PUSH3 0x92 JUMPI DUP1 PUSH4 0xFFDD5CF1 EQ PUSH3 0xDA JUMPI JUMPDEST PUSH1 0x0 DUP1 REVERT JUMPDEST PUSH3 0x61 PUSH3 0x100 JUMP JUMPDEST PUSH1 0x40 MLOAD PUSH3 0x70 SWAP2 SWAP1 PUSH3 0x67A JUMP JUMPDEST PUSH1 0x40 MLOAD DUP1 SWAP2 SUB SWAP1 RETURN JUMPDEST PUSH3 0x90 PUSH3 0x8A CALLDATASIZE PUSH1 0x4 PUSH3 0x479 JUMP JUMPDEST PUSH3 0x196 JUMP JUMPDEST STOP JUMPDEST PUSH3 0xCA PUSH3 0xA3 CALLDATASIZE PUSH1 0x4 PUSH3 0x449 JUMP JUMPDEST PUSH1 0x1 PUSH1 0x20 MSTORE PUSH1 0x0 SWAP1 DUP2 MSTORE PUSH1 0x40 SWAP1 KECCAK256 SLOAD PUSH1 0x1 PUSH1 0x1 PUSH1 0xA0 SHL SUB DUP2 AND SWAP1 PUSH1 0x1 PUSH1 0xA0 SHL SWAP1 DIV PUSH1 0xFF AND DUP3 JUMP JUMPDEST PUSH1 0x40 MLOAD PUSH3 0x70 SWAP3 SWAP2 SWAP1 PUSH3 0x5CE JUMP JUMPDEST PUSH3 0xF1 PUSH3 0xEB CALLDATASIZE PUSH1 0x4 PUSH3 0x449 JUMP JUMPDEST PUSH3 0x313 JUMP JUMPDEST PUSH1 0x40 MLOAD PUSH3 0x70 SWAP2 SWAP1 PUSH3 0x68F JUMP JUMPDEST PUSH1 0x0 DUP1 SLOAD PUSH3 0x10F SWAP1 PUSH3 0x6BC JUMP JUMPDEST DUP1 PUSH1 0x1F ADD PUSH1 0x20 DUP1 SWAP2 DIV MUL PUSH1 0x20 ADD PUSH1 0x40 MLOAD SWAP1 DUP2 ADD PUSH1 0x40 MSTORE DUP1 SWAP3 SWAP2 SWAP1 DUP2 DUP2 MSTORE PUSH1 0x20 ADD DUP3 DUP1 SLOAD PUSH3 0x13D SWAP1 PUSH3 0x6BC JUMP JUMPDEST DUP1 ISZERO PUSH3 0x18E JUMPI DUP1 PUSH1 0x1F LT PUSH3 0x162 JUMPI PUSH2 0x100 DUP1 DUP4 SLOAD DIV MUL DUP4 MSTORE SWAP2 PUSH1 0x20 ADD SWAP2 PUSH3 0x18E JUMP JUMPDEST DUP3 ADD SWAP2 SWAP1 PUSH1 0x0 MSTORE PUSH1 0x20 PUSH1 0x0 KECCAK256 SWAP1 JUMPDEST DUP2 SLOAD DUP2 MSTORE SWAP1 PUSH1 0x1 ADD SWAP1 PUSH1 0x20 ADD DUP1 DUP4 GT PUSH3 0x170 JUMPI DUP3 SWAP1 SUB PUSH1 0x1F AND DUP3 ADD SWAP2 JUMPDEST POP POP POP POP POP DUP2 JUMP JUMPDEST PUSH3 0x1A5 PUSH1 0x2 DUP1 SLOAD PUSH1 0x1 ADD SWAP1 SSTORE JUMP JUMPDEST PUSH1 0x0 PUSH3 0x1B1 PUSH1 0x2 SLOAD SWAP1 JUMP JUMPDEST SWAP1 POP PUSH1 0x0 ADDRESS DUP3 DUP10 DUP10 DUP10 DUP10 DUP10 PUSH1 0x40 MLOAD PUSH3 0x1CA SWAP1 PUSH3 0x3AC JUMP JUMPDEST PUSH3 0x1DC SWAP8 SWAP7 SWAP6 SWAP5 SWAP4 SWAP3 SWAP2 SWAP1 PUSH3 0x5ED JUMP JUMPDEST PUSH1 0x40 MLOAD DUP1 SWAP2 SUB SWAP1 PUSH1 0x0 CREATE DUP1 ISZERO DUP1 ISZERO PUSH3 0x1F9 JUMPI RETURNDATASIZE PUSH1 0x0 DUP1 RETURNDATACOPY RETURNDATASIZE PUSH1 0x0 REVERT JUMPDEST POP CALLER PUSH1 0x0 SWAP1 DUP2 MSTORE PUSH1 0x1 PUSH1 0x20 DUP2 SWAP1 MSTORE PUSH1 0x40 SWAP1 SWAP2 KECCAK256 DUP1 SLOAD PUSH1 0x1 PUSH1 0x1 PUSH1 0xA0 SHL SUB NOT AND PUSH1 0x1 PUSH1 0x1 PUSH1 0xA0 SHL SUB DUP5 AND OR SWAP1 SSTORE SWAP1 SWAP2 POP DUP4 EQ ISZERO PUSH3 0x25A JUMPI CALLER PUSH1 0x0 SWAP1 DUP2 MSTORE PUSH1 0x1 PUSH1 0x20 MSTORE PUSH1 0x40 DUP2 KECCAK256 DUP1 SLOAD PUSH1 0xFF PUSH1 0xA0 SHL NOT AND PUSH1 0x1 PUSH1 0xA0 SHL DUP4 JUMPDEST MUL OR SWAP1 SSTORE POP PUSH3 0x309 JUMP JUMPDEST DUP3 PUSH1 0x2 EQ ISZERO PUSH3 0x28B JUMPI CALLER PUSH1 0x0 SWAP1 DUP2 MSTORE PUSH1 0x1 PUSH1 0x20 DUP2 SWAP1 MSTORE PUSH1 0x40 SWAP1 SWAP2 KECCAK256 DUP1 SLOAD PUSH1 0xFF PUSH1 0xA0 SHL NOT AND PUSH1 0x1 PUSH1 0xA0 SHL DUP4 PUSH3 0x24F JUMP JUMPDEST DUP3 PUSH1 0x3 EQ ISZERO PUSH3 0x2BD JUMPI CALLER PUSH1 0x0 SWAP1 DUP2 MSTORE PUSH1 0x1 PUSH1 0x20 MSTORE PUSH1 0x40 SWAP1 KECCAK256 DUP1 SLOAD PUSH1 0x2 SWAP2 SWAP1 PUSH1 0xFF PUSH1 0xA0 SHL NOT AND PUSH1 0x1 PUSH1 0xA0 SHL DUP4 PUSH3 0x24F JUMP JUMPDEST PUSH1 0x40 MLOAD PUSH3 0x461BCD PUSH1 0xE5 SHL DUP2 MSTORE PUSH1 0x20 PUSH1 0x4 DUP3 ADD MSTORE PUSH1 0x17 PUSH1 0x24 DUP3 ADD MSTORE PUSH32 0x57726F6E672075736572207479706520656E7465726564000000000000000000 PUSH1 0x44 DUP3 ADD MSTORE PUSH1 0x64 ADD PUSH1 0x40 MLOAD DUP1 SWAP2 SUB SWAP1 REVERT JUMPDEST POP POP POP POP POP POP POP POP JUMP JUMPDEST PUSH1 0x40 DUP1 MLOAD DUP1 DUP3 ADD SWAP1 SWAP2 MSTORE PUSH1 0x0 DUP1 DUP3 MSTORE PUSH1 0x20 DUP3 ADD MSTORE PUSH1 0x1 PUSH1 0x1 PUSH1 0xA0 SHL SUB DUP3 DUP2 AND PUSH1 0x0 SWAP1 DUP2 MSTORE PUSH1 0x1 PUSH1 0x20 SWAP1 DUP2 MSTORE PUSH1 0x40 SWAP2 DUP3 SWAP1 KECCAK256 DUP3 MLOAD DUP1 DUP5 ADD SWAP1 SWAP4 MSTORE DUP1 SLOAD SWAP4 DUP5 AND DUP4 MSTORE SWAP2 SWAP3 SWAP1 DUP4 ADD SWAP1 PUSH1 0x1 PUSH1 0xA0 SHL SWAP1 DIV PUSH1 0xFF AND PUSH1 0x2 DUP2 GT ISZERO PUSH3 0x383 JUMPI PUSH4 0x4E487B71 PUSH1 0xE0 SHL PUSH1 0x0 MSTORE PUSH1 0x21 PUSH1 0x4 MSTORE PUSH1 0x24 PUSH1 0x0 REVERT JUMPDEST PUSH1 0x2 DUP2 GT ISZERO PUSH3 0x3A3 JUMPI PUSH4 0x4E487B71 PUSH1 0xE0 SHL PUSH1 0x0 MSTORE PUSH1 0x21 PUSH1 0x4 MSTORE PUSH1 0x24 PUSH1 0x0 REVERT JUMPDEST SWAP1 MSTORE POP SWAP3 SWAP2 POP POP JUMP JUMPDEST PUSH2 0x5A4 DUP1 PUSH3 0x710 DUP4 CODECOPY ADD SWAP1 JUMP JUMPDEST PUSH1 0x0 DUP3 PUSH1 0x1F DUP4 ADD SLT PUSH3 0x3CB JUMPI DUP1 DUP2 REVERT JUMPDEST DUP2 CALLDATALOAD PUSH8 0xFFFFFFFFFFFFFFFF DUP1 DUP3 GT ISZERO PUSH3 0x3E9 JUMPI PUSH3 0x3E9 PUSH3 0x6F9 JUMP JUMPDEST PUSH1 0x40 MLOAD PUSH1 0x1F DUP4 ADD PUSH1 0x1F NOT SWAP1 DUP2 AND PUSH1 0x3F ADD AND DUP2 ADD SWAP1 DUP3 DUP3 GT DUP2 DUP4 LT OR ISZERO PUSH3 0x414 JUMPI PUSH3 0x414 PUSH3 0x6F9 JUMP JUMPDEST DUP2 PUSH1 0x40 MSTORE DUP4 DUP2 MSTORE DUP7 PUSH1 0x20 DUP6 DUP9 ADD ADD GT ISZERO PUSH3 0x42D JUMPI DUP5 DUP6 REVERT JUMPDEST DUP4 PUSH1 0x20 DUP8 ADD PUSH1 0x20 DUP4 ADD CALLDATACOPY SWAP3 DUP4 ADD PUSH1 0x20 ADD SWAP4 SWAP1 SWAP4 MSTORE POP SWAP4 SWAP3 POP POP POP JUMP JUMPDEST PUSH1 0x0 PUSH1 0x20 DUP3 DUP5 SUB SLT ISZERO PUSH3 0x45B JUMPI DUP1 DUP2 REVERT JUMPDEST DUP2 CALLDATALOAD PUSH1 0x1 PUSH1 0x1 PUSH1 0xA0 SHL SUB DUP2 AND DUP2 EQ PUSH3 0x472 JUMPI DUP2 DUP3 REVERT JUMPDEST SWAP4 SWAP3 POP POP POP JUMP JUMPDEST PUSH1 0x0 DUP1 PUSH1 0x0 DUP1 PUSH1 0x0 DUP1 PUSH1 0xC0 DUP8 DUP10 SUB SLT ISZERO PUSH3 0x492 JUMPI DUP2 DUP3 REVERT JUMPDEST DUP7 CALLDATALOAD PUSH8 0xFFFFFFFFFFFFFFFF DUP1 DUP3 GT ISZERO PUSH3 0x4AA JUMPI DUP4 DUP5 REVERT JUMPDEST PUSH3 0x4B8 DUP11 DUP4 DUP12 ADD PUSH3 0x3BA JUMP JUMPDEST SWAP8 POP PUSH1 0x20 DUP10 ADD CALLDATALOAD SWAP2 POP DUP1 DUP3 GT ISZERO PUSH3 0x4CE JUMPI DUP4 DUP5 REVERT JUMPDEST PUSH3 0x4DC DUP11 DUP4 DUP12 ADD PUSH3 0x3BA JUMP JUMPDEST SWAP7 POP PUSH1 0x40 DUP10 ADD CALLDATALOAD SWAP2 POP DUP1 DUP3 GT ISZERO PUSH3 0x4F2 JUMPI DUP4 DUP5 REVERT JUMPDEST PUSH3 0x500 DUP11 DUP4 DUP12 ADD PUSH3 0x3BA JUMP JUMPDEST SWAP6 POP PUSH1 0x60 DUP10 ADD CALLDATALOAD SWAP2 POP DUP1 DUP3 GT ISZERO PUSH3 0x516 JUMPI DUP4 DUP5 REVERT JUMPDEST PUSH3 0x524 DUP11 DUP4 DUP12 ADD PUSH3 0x3BA JUMP JUMPDEST SWAP5 POP PUSH1 0x80 DUP10 ADD CALLDATALOAD SWAP2 POP DUP1 DUP3 GT ISZERO PUSH3 0x53A JUMPI DUP4 DUP5 REVERT JUMPDEST POP PUSH3 0x549 DUP10 DUP3 DUP11 ADD PUSH3 0x3BA JUMP JUMPDEST SWAP3 POP POP PUSH1 0xA0 DUP8 ADD CALLDATALOAD SWAP1 POP SWAP3 SWAP6 POP SWAP3 SWAP6 POP SWAP3 SWAP6 JUMP JUMPDEST PUSH1 0x3 DUP2 LT PUSH3 0x57C JUMPI PUSH4 0x4E487B71 PUSH1 0xE0 SHL PUSH1 0x0 MSTORE PUSH1 0x21 PUSH1 0x4 MSTORE PUSH1 0x24 PUSH1 0x0 REVERT JUMPDEST SWAP1 MSTORE JUMP JUMPDEST PUSH1 0x0 DUP2 MLOAD DUP1 DUP5 MSTORE DUP2 JUMPDEST DUP2 DUP2 LT ISZERO PUSH3 0x5A7 JUMPI PUSH1 0x20 DUP2 DUP6 ADD DUP2 ADD MLOAD DUP7 DUP4 ADD DUP3 ADD MSTORE ADD PUSH3 0x589 JUMP JUMPDEST DUP2 DUP2 GT ISZERO PUSH3 0x5B9 JUMPI DUP3 PUSH1 0x20 DUP4 DUP8 ADD ADD MSTORE JUMPDEST POP PUSH1 0x1F ADD PUSH1 0x1F NOT AND SWAP3 SWAP1 SWAP3 ADD PUSH1 0x20 ADD SWAP3 SWAP2 POP POP JUMP JUMPDEST PUSH1 0x1 PUSH1 0x1 PUSH1 0xA0 SHL SUB DUP4 AND DUP2 MSTORE PUSH1 0x40 DUP2 ADD PUSH3 0x472 PUSH1 0x20 DUP4 ADD DUP5 PUSH3 0x55D JUMP JUMPDEST PUSH1 0x1 DUP1 PUSH1 0xA0 SHL SUB DUP9 AND DUP2 MSTORE DUP7 PUSH1 0x20 DUP3 ADD MSTORE PUSH1 0xE0 PUSH1 0x40 DUP3 ADD MSTORE PUSH1 0x0 PUSH3 0x616 PUSH1 0xE0 DUP4 ADD DUP9 PUSH3 0x580 JUMP JUMPDEST DUP3 DUP2 SUB PUSH1 0x60 DUP5 ADD MSTORE PUSH3 0x62A DUP2 DUP9 PUSH3 0x580 JUMP JUMPDEST SWAP1 POP DUP3 DUP2 SUB PUSH1 0x80 DUP5 ADD MSTORE PUSH3 0x640 DUP2 DUP8 PUSH3 0x580 JUMP JUMPDEST SWAP1 POP DUP3 DUP2 SUB PUSH1 0xA0 DUP5 ADD MSTORE PUSH3 0x656 DUP2 DUP7 PUSH3 0x580 JUMP JUMPDEST SWAP1 POP DUP3 DUP2 SUB PUSH1 0xC0 DUP5 ADD MSTORE PUSH3 0x66C DUP2 DUP6 PUSH3 0x580 JUMP JUMPDEST SWAP11 SWAP10 POP POP POP POP POP POP POP POP POP POP JUMP JUMPDEST PUSH1 0x20 DUP2 MSTORE PUSH1 0x0 PUSH3 0x472 PUSH1 0x20 DUP4 ADD DUP5 PUSH3 0x580 JUMP JUMPDEST DUP2 MLOAD PUSH1 0x1 PUSH1 0x1 PUSH1 0xA0 SHL SUB AND DUP2 MSTORE PUSH1 0x20 DUP1 DUP4 ADD MLOAD PUSH1 0x40 DUP4 ADD SWAP2 PUSH3 0x6B5 SWAP1 DUP5 ADD DUP3 PUSH3 0x55D JUMP JUMPDEST POP SWAP3 SWAP2 POP POP JUMP JUMPDEST PUSH1 0x1 DUP2 DUP2 SHR SWAP1 DUP3 AND DUP1 PUSH3 0x6D1 JUMPI PUSH1 0x7F DUP3 AND SWAP2 POP JUMPDEST PUSH1 0x20 DUP3 LT DUP2 EQ ISZERO PUSH3 0x6F3 JUMPI PUSH4 0x4E487B71 PUSH1 0xE0 SHL PUSH1 0x0 MSTORE PUSH1 0x22 PUSH1 0x4 MSTORE PUSH1 0x24 PUSH1 0x0 REVERT JUMPDEST POP SWAP2 SWAP1 POP JUMP JUMPDEST PUSH4 0x4E487B71 PUSH1 0xE0 SHL PUSH1 0x0 MSTORE PUSH1 0x41 PUSH1 0x4 MSTORE PUSH1 0x24 PUSH1 0x0 REVERT INVALID PUSH1 0x80 PUSH1 0x40 MSTORE CALLVALUE DUP1 ISZERO PUSH2 0x10 JUMPI PUSH1 0x0 DUP1 REVERT JUMPDEST POP PUSH1 0x40 MLOAD PUSH2 0x5A4 CODESIZE SUB DUP1 PUSH2 0x5A4 DUP4 CODECOPY DUP2 ADD PUSH1 0x40 DUP2 SWAP1 MSTORE PUSH2 0x2F SWAP2 PUSH2 0x21C JUMP JUMPDEST PUSH1 0x6 DUP1 SLOAD PUSH1 0x1 PUSH1 0x1 PUSH1 0xA0 SHL SUB NOT AND PUSH1 0x1 PUSH1 0x1 PUSH1 0xA0 SHL SUB DUP10 AND OR SWAP1 SSTORE PUSH1 0x0 DUP7 SWAP1 SSTORE DUP5 MLOAD PUSH2 0x62 SWAP1 PUSH1 0x1 SWAP1 PUSH1 0x20 DUP9 ADD SWAP1 PUSH2 0xBF JUMP JUMPDEST POP DUP4 MLOAD PUSH2 0x76 SWAP1 PUSH1 0x2 SWAP1 PUSH1 0x20 DUP8 ADD SWAP1 PUSH2 0xBF JUMP JUMPDEST POP DUP3 MLOAD PUSH2 0x8A SWAP1 PUSH1 0x3 SWAP1 PUSH1 0x20 DUP7 ADD SWAP1 PUSH2 0xBF JUMP JUMPDEST POP DUP2 MLOAD PUSH2 0x9E SWAP1 PUSH1 0x4 SWAP1 PUSH1 0x20 DUP6 ADD SWAP1 PUSH2 0xBF JUMP JUMPDEST POP DUP1 MLOAD PUSH2 0xB2 SWAP1 PUSH1 0x5 SWAP1 PUSH1 0x20 DUP5 ADD SWAP1 PUSH2 0xBF JUMP JUMPDEST POP POP POP POP POP POP POP POP PUSH2 0x353 JUMP JUMPDEST DUP3 DUP1 SLOAD PUSH2 0xCB SWAP1 PUSH2 0x302 JUMP JUMPDEST SWAP1 PUSH1 0x0 MSTORE PUSH1 0x20 PUSH1 0x0 KECCAK256 SWAP1 PUSH1 0x1F ADD PUSH1 0x20 SWAP1 DIV DUP2 ADD SWAP3 DUP3 PUSH2 0xED JUMPI PUSH1 0x0 DUP6 SSTORE PUSH2 0x133 JUMP JUMPDEST DUP3 PUSH1 0x1F LT PUSH2 0x106 JUMPI DUP1 MLOAD PUSH1 0xFF NOT AND DUP4 DUP1 ADD OR DUP6 SSTORE PUSH2 0x133 JUMP JUMPDEST DUP3 DUP1 ADD PUSH1 0x1 ADD DUP6 SSTORE DUP3 ISZERO PUSH2 0x133 JUMPI SWAP2 DUP3 ADD JUMPDEST DUP3 DUP2 GT ISZERO PUSH2 0x133 JUMPI DUP3 MLOAD DUP3 SSTORE SWAP2 PUSH1 0x20 ADD SWAP2 SWAP1 PUSH1 0x1 ADD SWAP1 PUSH2 0x118 JUMP JUMPDEST POP PUSH2 0x13F SWAP3 SWAP2 POP PUSH2 0x143 JUMP JUMPDEST POP SWAP1 JUMP JUMPDEST JUMPDEST DUP1 DUP3 GT ISZERO PUSH2 0x13F JUMPI PUSH1 0x0 DUP2 SSTORE PUSH1 0x1 ADD PUSH2 0x144 JUMP JUMPDEST DUP1 MLOAD PUSH1 0x1 PUSH1 0x1 PUSH1 0xA0 SHL SUB DUP2 AND DUP2 EQ PUSH2 0x16F JUMPI PUSH1 0x0 DUP1 REVERT JUMPDEST SWAP2 SWAP1 POP JUMP JUMPDEST PUSH1 0x0 DUP3 PUSH1 0x1F DUP4 ADD SLT PUSH2 0x184 JUMPI DUP1 DUP2 REVERT JUMPDEST DUP2 MLOAD PUSH1 0x1 PUSH1 0x1 PUSH1 0x40 SHL SUB DUP1 DUP3 GT ISZERO PUSH2 0x19E JUMPI PUSH2 0x19E PUSH2 0x33D JUMP JUMPDEST PUSH1 0x40 MLOAD PUSH1 0x1F DUP4 ADD PUSH1 0x1F NOT SWAP1 DUP2 AND PUSH1 0x3F ADD AND DUP2 ADD SWAP1 DUP3 DUP3 GT DUP2 DUP4 LT OR ISZERO PUSH2 0x1C6 JUMPI PUSH2 0x1C6 PUSH2 0x33D JUMP JUMPDEST DUP2 PUSH1 0x40 MSTORE DUP4 DUP2 MSTORE PUSH1 0x20 SWAP3 POP DUP7 DUP4 DUP6 DUP9 ADD ADD GT ISZERO PUSH2 0x1E1 JUMPI DUP5 DUP6 REVERT JUMPDEST DUP5 SWAP2 POP JUMPDEST DUP4 DUP3 LT ISZERO PUSH2 0x202 JUMPI DUP6 DUP3 ADD DUP4 ADD MLOAD DUP2 DUP4 ADD DUP5 ADD MSTORE SWAP1 DUP3 ADD SWAP1 PUSH2 0x1E5 JUMP JUMPDEST DUP4 DUP3 GT ISZERO PUSH2 0x212 JUMPI DUP5 DUP4 DUP6 DUP4 ADD ADD MSTORE JUMPDEST SWAP7 SWAP6 POP POP POP POP POP POP JUMP JUMPDEST PUSH1 0x0 DUP1 PUSH1 0x0 DUP1 PUSH1 0x0 DUP1 PUSH1 0x0 PUSH1 0xE0 DUP9 DUP11 SUB SLT ISZERO PUSH2 0x236 JUMPI DUP3 DUP4 REVERT JUMPDEST PUSH2 0x23F DUP9 PUSH2 0x158 JUMP JUMPDEST PUSH1 0x20 DUP10 ADD MLOAD PUSH1 0x40 DUP11 ADD MLOAD SWAP2 SWAP9 POP SWAP7 POP PUSH1 0x1 PUSH1 0x1 PUSH1 0x40 SHL SUB DUP1 DUP3 GT ISZERO PUSH2 0x262 JUMPI DUP5 DUP6 REVERT JUMPDEST PUSH2 0x26E DUP12 DUP4 DUP13 ADD PUSH2 0x174 JUMP JUMPDEST SWAP7 POP PUSH1 0x60 DUP11 ADD MLOAD SWAP2 POP DUP1 DUP3 GT ISZERO PUSH2 0x283 JUMPI DUP5 DUP6 REVERT JUMPDEST PUSH2 0x28F DUP12 DUP4 DUP13 ADD PUSH2 0x174 JUMP JUMPDEST SWAP6 POP PUSH1 0x80 DUP11 ADD MLOAD SWAP2 POP DUP1 DUP3 GT ISZERO PUSH2 0x2A4 JUMPI DUP5 DUP6 REVERT JUMPDEST PUSH2 0x2B0 DUP12 DUP4 DUP13 ADD PUSH2 0x174 JUMP JUMPDEST SWAP5 POP PUSH1 0xA0 DUP11 ADD MLOAD SWAP2 POP DUP1 DUP3 GT ISZERO PUSH2 0x2C5 JUMPI DUP4 DUP5 REVERT JUMPDEST PUSH2 0x2D1 DUP12 DUP4 DUP13 ADD PUSH2 0x174 JUMP JUMPDEST SWAP4 POP PUSH1 0xC0 DUP11 ADD MLOAD SWAP2 POP DUP1 DUP3 GT ISZERO PUSH2 0x2E6 JUMPI DUP3 DUP4 REVERT JUMPDEST POP PUSH2 0x2F3 DUP11 DUP3 DUP12 ADD PUSH2 0x174 JUMP JUMPDEST SWAP2 POP POP SWAP3 SWAP6 SWAP9 SWAP2 SWAP5 SWAP8 POP SWAP3 SWAP6 POP JUMP JUMPDEST PUSH1 0x1 DUP2 DUP2 SHR SWAP1 DUP3 AND DUP1 PUSH2 0x316 JUMPI PUSH1 0x7F DUP3 AND SWAP2 POP JUMPDEST PUSH1 0x20 DUP3 LT DUP2 EQ ISZERO PUSH2 0x337 JUMPI PUSH4 0x4E487B71 PUSH1 0xE0 SHL PUSH1 0x0 MSTORE PUSH1 0x22 PUSH1 0x4 MSTORE PUSH1 0x24 PUSH1 0x0 REVERT JUMPDEST POP SWAP2 SWAP1 POP JUMP JUMPDEST PUSH4 0x4E487B71 PUSH1 0xE0 SHL PUSH1 0x0 MSTORE PUSH1 0x41 PUSH1 0x4 MSTORE PUSH1 0x24 PUSH1 0x0 REVERT JUMPDEST PUSH2 0x242 DUP1 PUSH2 0x362 PUSH1 0x0 CODECOPY PUSH1 0x0 RETURN INVALID PUSH1 0x80 PUSH1 0x40 MSTORE CALLVALUE DUP1 ISZERO PUSH2 0x10 JUMPI PUSH1 0x0 DUP1 REVERT JUMPDEST POP PUSH1 0x4 CALLDATASIZE LT PUSH2 0x62 JUMPI PUSH1 0x0 CALLDATALOAD PUSH1 0xE0 SHR DUP1 PUSH4 0x3AEACCF5 EQ PUSH2 0x67 JUMPI DUP1 PUSH4 0x516F279E EQ PUSH2 0x85 JUMPI DUP1 PUSH4 0x58975919 EQ PUSH2 0x8D JUMPI DUP1 PUSH4 0x70019B35 EQ PUSH2 0xA4 JUMPI DUP1 PUSH4 0x76AF633C EQ PUSH2 0xAC JUMPI DUP1 PUSH4 0x926258B9 EQ PUSH2 0xB4 JUMPI JUMPDEST PUSH1 0x0 DUP1 REVERT JUMPDEST PUSH2 0x6F PUSH2 0xBC JUMP JUMPDEST PUSH1 0x40 MLOAD PUSH2 0x7C SWAP2 SWAP1 PUSH2 0x17E JUMP JUMPDEST PUSH1 0x40 MLOAD DUP1 SWAP2 SUB SWAP1 RETURN JUMPDEST PUSH2 0x6F PUSH2 0x14A JUMP JUMPDEST PUSH2 0x96 PUSH1 0x0 SLOAD DUP2 JUMP JUMPDEST PUSH1 0x40 MLOAD SWAP1 DUP2 MSTORE PUSH1 0x20 ADD PUSH2 0x7C JUMP JUMPDEST PUSH2 0x6F PUSH2 0x157 JUMP JUMPDEST PUSH2 0x6F PUSH2 0x164 JUMP JUMPDEST PUSH2 0x6F PUSH2 0x171 JUMP JUMPDEST PUSH1 0x2 DUP1 SLOAD PUSH2 0xC9 SWAP1 PUSH2 0x1D1 JUMP JUMPDEST DUP1 PUSH1 0x1F ADD PUSH1 0x20 DUP1 SWAP2 DIV MUL PUSH1 0x20 ADD PUSH1 0x40 MLOAD SWAP1 DUP2 ADD PUSH1 0x40 MSTORE DUP1 SWAP3 SWAP2 SWAP1 DUP2 DUP2 MSTORE PUSH1 0x20 ADD DUP3 DUP1 SLOAD PUSH2 0xF5 SWAP1 PUSH2 0x1D1 JUMP JUMPDEST DUP1 ISZERO PUSH2 0x142 JUMPI DUP1 PUSH1 0x1F LT PUSH2 0x117 JUMPI PUSH2 0x100 DUP1 DUP4 SLOAD DIV MUL DUP4 MSTORE SWAP2 PUSH1 0x20 ADD SWAP2 PUSH2 0x142 JUMP JUMPDEST DUP3 ADD SWAP2 SWAP1 PUSH1 0x0 MSTORE PUSH1 0x20 PUSH1 0x0 KECCAK256 SWAP1 JUMPDEST DUP2 SLOAD DUP2 MSTORE SWAP1 PUSH1 0x1 ADD SWAP1 PUSH1 0x20 ADD DUP1 DUP4 GT PUSH2 0x125 JUMPI DUP3 SWAP1 SUB PUSH1 0x1F AND DUP3 ADD SWAP2 JUMPDEST POP POP POP POP POP DUP2 JUMP JUMPDEST PUSH1 0x4 DUP1 SLOAD PUSH2 0xC9 SWAP1 PUSH2 0x1D1 JUMP JUMPDEST PUSH1 0x1 DUP1 SLOAD PUSH2 0xC9 SWAP1 PUSH2 0x1D1 JUMP JUMPDEST PUSH1 0x3 DUP1 SLOAD PUSH2 0xC9 SWAP1 PUSH2 0x1D1 JUMP JUMPDEST PUSH1 0x5 DUP1 SLOAD PUSH2 0xC9 SWAP1 PUSH2 0x1D1 JUMP JUMPDEST PUSH1 0x0 PUSH1 0x20 DUP1 DUP4 MSTORE DUP4 MLOAD DUP1 DUP3 DUP6 ADD MSTORE DUP3 JUMPDEST DUP2 DUP2 LT ISZERO PUSH2 0x1AA JUMPI DUP6 DUP2 ADD DUP4 ADD MLOAD DUP6 DUP3 ADD PUSH1 0x40 ADD MSTORE DUP3 ADD PUSH2 0x18E JUMP JUMPDEST DUP2 DUP2 GT ISZERO PUSH2 0x1BB JUMPI DUP4 PUSH1 0x40 DUP4 DUP8 ADD ADD MSTORE JUMPDEST POP PUSH1 0x1F ADD PUSH1 0x1F NOT AND SWAP3 SWAP1 SWAP3 ADD PUSH1 0x40 ADD SWAP4 SWAP3 POP POP POP JUMP JUMPDEST PUSH1 0x1 DUP2 DUP2 SHR SWAP1 DUP3 AND DUP1 PUSH2 0x1E5 JUMPI PUSH1 0x7F DUP3 AND SWAP2 POP JUMPDEST PUSH1 0x20 DUP3 LT DUP2 EQ ISZERO PUSH2 0x206 JUMPI PUSH4 0x4E487B71 PUSH1 0xE0 SHL PUSH1 0x0 MSTORE PUSH1 0x22 PUSH1 0x4 MSTORE PUSH1 0x24 PUSH1 0x0 REVERT JUMPDEST POP SWAP2 SWAP1 POP JUMP INVALID LOG2 PUSH5 0x6970667358 0x22 SLT KECCAK256 PUSH17 0xFE31612767CCC5ECE414E6FB6DB721A8CA 0xE9 MSIZE PUSH2 0xA5BE GAS 0xBD 0xD6 0xC6 PUSH12 0xF1A6D4E664736F6C63430008 DIV STOP CALLER LOG2 PUSH5 0x6970667358 0x22 SLT KECCAK256 0xE0 EXTCODEHASH DUP13 MSTORE EXTCODECOPY 0xC0 EXTCODECOPY PUSH12 0x9A8B5C564AD58BDD9380B9E7 DUP13 EXP 0xC0 0xC1 GT 0xB8 PUSH24 0x1CD06BD2E964736F6C634300080400330000000000000000 "},"methodIdentifiers":{"Users(address)":"99b956a0","createUser(string,string,string,string,string,uint256)":"74c15d31","getInfo(address)":"ffdd5cf1","name()":"06fdde03"}}}}}