{
  "_format": "hh-sol-artifact-1",
  "contractName": "User",
  "sourceName": "contracts/User.sol",
  "abi": [
    {
      "inputs": [
        {
          "internalType": "contract geoBlockchain",
          "name": "_parentContract",
          "type": "address"
        },
        {
          "internalType": "uint256",
          "name": "_userId",
          "type": "uint256"
        },
        {
          "internalType": "string",
          "name": "_userName",
          "type": "string"
        },
        {
          "internalType": "string",
          "name": "_Address",
          "type": "string"
        },
        {
          "internalType": "string",
          "name": "_contactNumber",
          "type": "string"
        },
        {
          "internalType": "string",
          "name": "_location",
          "type": "string"
        },
        {
          "internalType": "string",
          "name": "_AadharId",
          "type": "string"
        }
      ],
      "stateMutability": "nonpayable",
      "type": "constructor"
    },
    {
      "inputs": [],
      "name": "AadharId",
      "outputs": [
        {
          "internalType": "string",
          "name": "",
          "type": "string"
        }
      ],
      "stateMutability": "view",
      "type": "function"
    },
    {
      "inputs": [],
      "name": "Address",
      "outputs": [
        {
          "internalType": "string",
          "name": "",
          "type": "string"
        }
      ],
      "stateMutability": "view",
      "type": "function"
    },
    {
      "inputs": [],
      "name": "contactNumber",
      "outputs": [
        {
          "internalType": "string",
          "name": "",
          "type": "string"
        }
      ],
      "stateMutability": "view",
      "type": "function"
    },
    {
      "inputs": [],
      "name": "location",
      "outputs": [
        {
          "internalType": "string",
          "name": "",
          "type": "string"
        }
      ],
      "stateMutability": "view",
      "type": "function"
    },
    {
      "inputs": [],
      "name": "userId",
      "outputs": [
        {
          "internalType": "uint256",
          "name": "",
          "type": "uint256"
        }
      ],
      "stateMutability": "view",
      "type": "function"
    },
    {
      "inputs": [],
      "name": "userName",
      "outputs": [
        {
          "internalType": "string",
          "name": "",
          "type": "string"
        }
      ],
      "stateMutability": "view",
      "type": "function"
    }
  ],
  "bytecode": "0x608060405234801561001057600080fd5b506040516105a43803806105a483398101604081905261002f9161021c565b600680546001600160a01b0319166001600160a01b038916179055600086905584516100629060019060208801906100bf565b5083516100769060029060208701906100bf565b50825161008a9060039060208601906100bf565b50815161009e9060049060208501906100bf565b5080516100b29060059060208401906100bf565b5050505050505050610353565b8280546100cb90610302565b90600052602060002090601f0160209004810192826100ed5760008555610133565b82601f1061010657805160ff1916838001178555610133565b82800160010185558215610133579182015b82811115610133578251825591602001919060010190610118565b5061013f929150610143565b5090565b5b8082111561013f5760008155600101610144565b80516001600160a01b038116811461016f57600080fd5b919050565b600082601f830112610184578081fd5b81516001600160401b038082111561019e5761019e61033d565b604051601f8301601f19908116603f011681019082821181831017156101c6576101c661033d565b816040528381526020925086838588010111156101e1578485fd5b8491505b8382101561020257858201830151818301840152908201906101e5565b8382111561021257848385830101525b9695505050505050565b600080600080600080600060e0888a031215610236578283fd5b61023f88610158565b602089015160408a015191985096506001600160401b0380821115610262578485fd5b61026e8b838c01610174565b965060608a0151915080821115610283578485fd5b61028f8b838c01610174565b955060808a01519150808211156102a4578485fd5b6102b08b838c01610174565b945060a08a01519150808211156102c5578384fd5b6102d18b838c01610174565b935060c08a01519150808211156102e6578283fd5b506102f38a828b01610174565b91505092959891949750929550565b600181811c9082168061031657607f821691505b6020821081141561033757634e487b7160e01b600052602260045260246000fd5b50919050565b634e487b7160e01b600052604160045260246000fd5b610242806103626000396000f3fe608060405234801561001057600080fd5b50600436106100625760003560e01c80633aeaccf514610067578063516f279e14610085578063589759191461008d57806370019b35146100a457806376af633c146100ac578063926258b9146100b4575b600080fd5b61006f6100bc565b60405161007c919061017e565b60405180910390f35b61006f61014a565b61009660005481565b60405190815260200161007c565b61006f610157565b61006f610164565b61006f610171565b600280546100c9906101d1565b80601f01602080910402602001604051908101604052809291908181526020018280546100f5906101d1565b80156101425780601f1061011757610100808354040283529160200191610142565b820191906000526020600020905b81548152906001019060200180831161012557829003601f168201915b505050505081565b600480546100c9906101d1565b600180546100c9906101d1565b600380546100c9906101d1565b600580546100c9906101d1565b6000602080835283518082850152825b818110156101aa5785810183015185820160400152820161018e565b818111156101bb5783604083870101525b50601f01601f1916929092016040019392505050565b600181811c908216806101e557607f821691505b6020821081141561020657634e487b7160e01b600052602260045260246000fd5b5091905056fea264697066735822122059b5b6a58d05b03ea75cd6d26b86d98ab08e444a4d80a29d796b58e2c08e4d1964736f6c63430008040033",
  "linkReferences": {},
  "deployedLinkReferences": {}
}