{
  "_format": "hh-sol-artifact-1",
  "contractName": "geoBlockchain",
  "sourceName": "contracts/geoBlockchain.sol",
  "abi": [
    {
      "inputs": [
        {
          "internalType": "address",
          "name": "",
          "type": "address"
        }
      ],
      "name": "Users",
      "outputs": [
        {
          "internalType": "contract User",
          "name": "user",
          "type": "address"
        },
        {
          "internalType": "enum geoBlockchain.UserType",
          "name": "userType",
          "type": "uint8"
        }
      ],
      "stateMutability": "view",
      "type": "function"
    },
    {
      "inputs": [
        {
          "internalType": "string",
          "name": "_userName",
          "type": "string"
        },
        {
          "internalType": "string",
          "name": "_Address",
          "type": "string"
        },
        {
          "internalType": "string",
          "name": "_contactNumber",
          "type": "string"
        },
        {
          "internalType": "string",
          "name": "_location",
          "type": "string"
        },
        {
          "internalType": "string",
          "name": "_AadharId",
          "type": "string"
        },
        {
          "internalType": "uint256",
          "name": "_type",
          "type": "uint256"
        }
      ],
      "name": "createUser",
      "outputs": [],
      "stateMutability": "nonpayable",
      "type": "function"
    }
  ],
  "bytecode": "0x608060405234801561001057600080fd5b50610a9a806100206000396000f3fe608060405234801561001057600080fd5b50600436106100365760003560e01c806374c15d311461003b57806399b956a014610050575b600080fd5b61004e6100493660046102cd565b61009c565b005b61008561005e36600461029f565b6000602081905290815260409020546001600160a01b03811690600160a01b900460ff1682565b6040516100939291906103ec565b60405180910390f35b6100aa600180546001019055565b60006100b560015490565b90506000308289898989896040516100cc9061020b565b6100dc9796959493929190610427565b604051809103906000f0801580156100f8573d6000803e3d6000fd5b5033600090815260208190526040902080546001600160a01b0319166001600160a01b0383161790559050600183141561015557336000908152602081905260408120805460ff60a01b1916600160a01b835b0217905550610201565b82600214156101855733600090815260208190526040902080546001919060ff60a01b1916600160a01b8361014b565b82600314156101b55733600090815260208190526040902080546002919060ff60a01b1916600160a01b8361014b565b60405162461bcd60e51b815260206004820152601760248201527f57726f6e672075736572207479706520656e7465726564000000000000000000604482015260640160405180910390fd5b5050505050505050565b6105a4806104c183390190565b600082601f830112610228578081fd5b813567ffffffffffffffff80821115610243576102436104aa565b604051601f8301601f19908116603f0116810190828211818310171561026b5761026b6104aa565b81604052838152866020858801011115610283578485fd5b8360208701602083013792830160200193909352509392505050565b6000602082840312156102b0578081fd5b81356001600160a01b03811681146102c6578182fd5b9392505050565b60008060008060008060c087890312156102e5578182fd5b863567ffffffffffffffff808211156102fc578384fd5b6103088a838b01610218565b9750602089013591508082111561031d578384fd5b6103298a838b01610218565b9650604089013591508082111561033e578384fd5b61034a8a838b01610218565b9550606089013591508082111561035f578384fd5b61036b8a838b01610218565b94506080890135915080821115610380578384fd5b5061038d89828a01610218565b92505060a087013590509295509295509295565b60008151808452815b818110156103c6576020818501810151868301820152016103aa565b818111156103d75782602083870101525b50601f01601f19169290920160200192915050565b6001600160a01b0383168152604081016003831061041a57634e487b7160e01b600052602160045260246000fd5b8260208301529392505050565b60018060a01b038816815286602082015260e06040820152600061044e60e08301886103a1565b828103606084015261046081886103a1565b9050828103608084015261047481876103a1565b905082810360a084015261048881866103a1565b905082810360c084015261049c81856103a1565b9a9950505050505050505050565b634e487b7160e01b600052604160045260246000fdfe608060405234801561001057600080fd5b506040516105a43803806105a483398101604081905261002f9161021c565b600680546001600160a01b0319166001600160a01b038916179055600086905584516100629060019060208801906100bf565b5083516100769060029060208701906100bf565b50825161008a9060039060208601906100bf565b50815161009e9060049060208501906100bf565b5080516100b29060059060208401906100bf565b5050505050505050610353565b8280546100cb90610302565b90600052602060002090601f0160209004810192826100ed5760008555610133565b82601f1061010657805160ff1916838001178555610133565b82800160010185558215610133579182015b82811115610133578251825591602001919060010190610118565b5061013f929150610143565b5090565b5b8082111561013f5760008155600101610144565b80516001600160a01b038116811461016f57600080fd5b919050565b600082601f830112610184578081fd5b81516001600160401b038082111561019e5761019e61033d565b604051601f8301601f19908116603f011681019082821181831017156101c6576101c661033d565b816040528381526020925086838588010111156101e1578485fd5b8491505b8382101561020257858201830151818301840152908201906101e5565b8382111561021257848385830101525b9695505050505050565b600080600080600080600060e0888a031215610236578283fd5b61023f88610158565b602089015160408a015191985096506001600160401b0380821115610262578485fd5b61026e8b838c01610174565b965060608a0151915080821115610283578485fd5b61028f8b838c01610174565b955060808a01519150808211156102a4578485fd5b6102b08b838c01610174565b945060a08a01519150808211156102c5578384fd5b6102d18b838c01610174565b935060c08a01519150808211156102e6578283fd5b506102f38a828b01610174565b91505092959891949750929550565b600181811c9082168061031657607f821691505b6020821081141561033757634e487b7160e01b600052602260045260246000fd5b50919050565b634e487b7160e01b600052604160045260246000fd5b610242806103626000396000f3fe608060405234801561001057600080fd5b50600436106100625760003560e01c80633aeaccf514610067578063516f279e14610085578063589759191461008d57806370019b35146100a457806376af633c146100ac578063926258b9146100b4575b600080fd5b61006f6100bc565b60405161007c919061017e565b60405180910390f35b61006f61014a565b61009660005481565b60405190815260200161007c565b61006f610157565b61006f610164565b61006f610171565b600280546100c9906101d1565b80601f01602080910402602001604051908101604052809291908181526020018280546100f5906101d1565b80156101425780601f1061011757610100808354040283529160200191610142565b820191906000526020600020905b81548152906001019060200180831161012557829003601f168201915b505050505081565b600480546100c9906101d1565b600180546100c9906101d1565b600380546100c9906101d1565b600580546100c9906101d1565b6000602080835283518082850152825b818110156101aa5785810183015185820160400152820161018e565b818111156101bb5783604083870101525b50601f01601f1916929092016040019392505050565b600181811c908216806101e557607f821691505b6020821081141561020657634e487b7160e01b600052602260045260246000fd5b5091905056fea264697066735822122059b5b6a58d05b03ea75cd6d26b86d98ab08e444a4d80a29d796b58e2c08e4d1964736f6c63430008040033a264697066735822122021de2ee6ea42dc42711416e75b11072767f28907a75be9fc878a8dceb92cf2c364736f6c63430008040033",
  "linkReferences": {},
  "deployedLinkReferences": {}
}