{
  "_format": "hh-sol-artifact-1",
  "contractName": "geoBlockchain",
  "sourceName": "contracts/geoBlockchain.sol",
  "abi": [
    {
      "inputs": [
        {
          "internalType": "address",
          "name": "",
          "type": "address"
        }
      ],
      "name": "Users",
      "outputs": [
        {
          "internalType": "contract User",
          "name": "user",
          "type": "address"
        },
        {
          "internalType": "enum geoBlockchain.UserType",
          "name": "userType",
          "type": "uint8"
        }
      ],
      "stateMutability": "view",
      "type": "function"
    },
    {
      "inputs": [
        {
          "internalType": "string",
          "name": "_userName",
          "type": "string"
        },
        {
          "internalType": "string",
          "name": "_Address",
          "type": "string"
        },
        {
          "internalType": "string",
          "name": "_contactNumber",
          "type": "string"
        },
        {
          "internalType": "string",
          "name": "_location",
          "type": "string"
        },
        {
          "internalType": "string",
          "name": "_AadharId",
          "type": "string"
        },
        {
          "internalType": "uint256",
          "name": "_type",
          "type": "uint256"
        }
      ],
      "name": "createUser",
      "outputs": [],
      "stateMutability": "nonpayable",
      "type": "function"
    },
    {
      "inputs": [
        {
          "internalType": "address",
          "name": "addr",
          "type": "address"
        }
      ],
      "name": "getInfo",
      "outputs": [
        {
          "components": [
            {
              "internalType": "contract User",
              "name": "user",
              "type": "address"
            },
            {
              "internalType": "enum geoBlockchain.UserType",
              "name": "userType",
              "type": "uint8"
            }
          ],
          "internalType": "struct geoBlockchain.userInfo",
          "name": "",
          "type": "tuple"
        }
      ],
      "stateMutability": "view",
      "type": "function"
    },
    {
      "inputs": [],
      "name": "name",
      "outputs": [
        {
          "internalType": "string",
          "name": "",
          "type": "string"
        }
      ],
      "stateMutability": "view",
      "type": "function"
    }
  ],
  "bytecode": "0x60c0604052600560808190526467656f626360d81b60a09081526100269160009190610039565b5034801561003357600080fd5b5061010d565b828054610045906100d2565b90600052602060002090601f01602090048101928261006757600085556100ad565b82601f1061008057805160ff19168380011785556100ad565b828001600101855582156100ad579182015b828111156100ad578251825591602001919060010190610092565b506100b99291506100bd565b5090565b5b808211156100b957600081556001016100be565b600181811c908216806100e657607f821691505b6020821081141561010757634e487b7160e01b600052602260045260246000fd5b50919050565b610ce98061011c6000396000f3fe60806040523480156200001157600080fd5b5060043610620000525760003560e01c806306fdde03146200005757806374c15d31146200007957806399b956a01462000092578063ffdd5cf114620000da575b600080fd5b6200006162000100565b6040516200007091906200067a565b60405180910390f35b620000906200008a36600462000479565b62000196565b005b620000ca620000a336600462000449565b6001602052600090815260409020546001600160a01b03811690600160a01b900460ff1682565b60405162000070929190620005ce565b620000f1620000eb36600462000449565b62000313565b6040516200007091906200068f565b600080546200010f90620006bc565b80601f01602080910402602001604051908101604052809291908181526020018280546200013d90620006bc565b80156200018e5780601f1062000162576101008083540402835291602001916200018e565b820191906000526020600020905b8154815290600101906020018083116200017057829003601f168201915b505050505081565b620001a5600280546001019055565b6000620001b160025490565b9050600030828989898989604051620001ca90620003ac565b620001dc9796959493929190620005ed565b604051809103906000f080158015620001f9573d6000803e3d6000fd5b5033600090815260016020819052604090912080546001600160a01b0319166001600160a01b0384161790559091508314156200025a57336000908152600160205260408120805460ff60a01b1916600160a01b835b021790555062000309565b82600214156200028b57336000908152600160208190526040909120805460ff60a01b1916600160a01b836200024f565b8260031415620002bd5733600090815260016020526040902080546002919060ff60a01b1916600160a01b836200024f565b60405162461bcd60e51b815260206004820152601760248201527f57726f6e672075736572207479706520656e7465726564000000000000000000604482015260640160405180910390fd5b5050505050505050565b60408051808201909152600080825260208201526001600160a01b03828116600090815260016020908152604091829020825180840190935280549384168352919290830190600160a01b900460ff1660028111156200038357634e487b7160e01b600052602160045260246000fd5b6002811115620003a357634e487b7160e01b600052602160045260246000fd5b90525092915050565b6105a4806200071083390190565b600082601f830112620003cb578081fd5b813567ffffffffffffffff80821115620003e957620003e9620006f9565b604051601f8301601f19908116603f01168101908282118183101715620004145762000414620006f9565b816040528381528660208588010111156200042d578485fd5b8360208701602083013792830160200193909352509392505050565b6000602082840312156200045b578081fd5b81356001600160a01b038116811462000472578182fd5b9392505050565b60008060008060008060c0878903121562000492578182fd5b863567ffffffffffffffff80821115620004aa578384fd5b620004b88a838b01620003ba565b97506020890135915080821115620004ce578384fd5b620004dc8a838b01620003ba565b96506040890135915080821115620004f2578384fd5b620005008a838b01620003ba565b9550606089013591508082111562000516578384fd5b620005248a838b01620003ba565b945060808901359150808211156200053a578384fd5b506200054989828a01620003ba565b92505060a087013590509295509295509295565b600381106200057c57634e487b7160e01b600052602160045260246000fd5b9052565b60008151808452815b81811015620005a75760208185018101518683018201520162000589565b81811115620005b95782602083870101525b50601f01601f19169290920160200192915050565b6001600160a01b0383168152604081016200047260208301846200055d565b60018060a01b038816815286602082015260e0604082015260006200061660e083018862000580565b82810360608401526200062a818862000580565b9050828103608084015262000640818762000580565b905082810360a084015262000656818662000580565b905082810360c08401526200066c818562000580565b9a9950505050505050505050565b60208152600062000472602083018462000580565b81516001600160a01b031681526020808301516040830191620006b5908401826200055d565b5092915050565b600181811c90821680620006d157607f821691505b60208210811415620006f357634e487b7160e01b600052602260045260246000fd5b50919050565b634e487b7160e01b600052604160045260246000fdfe608060405234801561001057600080fd5b506040516105a43803806105a483398101604081905261002f9161021c565b600680546001600160a01b0319166001600160a01b038916179055600086905584516100629060019060208801906100bf565b5083516100769060029060208701906100bf565b50825161008a9060039060208601906100bf565b50815161009e9060049060208501906100bf565b5080516100b29060059060208401906100bf565b5050505050505050610353565b8280546100cb90610302565b90600052602060002090601f0160209004810192826100ed5760008555610133565b82601f1061010657805160ff1916838001178555610133565b82800160010185558215610133579182015b82811115610133578251825591602001919060010190610118565b5061013f929150610143565b5090565b5b8082111561013f5760008155600101610144565b80516001600160a01b038116811461016f57600080fd5b919050565b600082601f830112610184578081fd5b81516001600160401b038082111561019e5761019e61033d565b604051601f8301601f19908116603f011681019082821181831017156101c6576101c661033d565b816040528381526020925086838588010111156101e1578485fd5b8491505b8382101561020257858201830151818301840152908201906101e5565b8382111561021257848385830101525b9695505050505050565b600080600080600080600060e0888a031215610236578283fd5b61023f88610158565b602089015160408a015191985096506001600160401b0380821115610262578485fd5b61026e8b838c01610174565b965060608a0151915080821115610283578485fd5b61028f8b838c01610174565b955060808a01519150808211156102a4578485fd5b6102b08b838c01610174565b945060a08a01519150808211156102c5578384fd5b6102d18b838c01610174565b935060c08a01519150808211156102e6578283fd5b506102f38a828b01610174565b91505092959891949750929550565b600181811c9082168061031657607f821691505b6020821081141561033757634e487b7160e01b600052602260045260246000fd5b50919050565b634e487b7160e01b600052604160045260246000fd5b610242806103626000396000f3fe608060405234801561001057600080fd5b50600436106100625760003560e01c80633aeaccf514610067578063516f279e14610085578063589759191461008d57806370019b35146100a457806376af633c146100ac578063926258b9146100b4575b600080fd5b61006f6100bc565b60405161007c919061017e565b60405180910390f35b61006f61014a565b61009660005481565b60405190815260200161007c565b61006f610157565b61006f610164565b61006f610171565b600280546100c9906101d1565b80601f01602080910402602001604051908101604052809291908181526020018280546100f5906101d1565b80156101425780601f1061011757610100808354040283529160200191610142565b820191906000526020600020905b81548152906001019060200180831161012557829003601f168201915b505050505081565b600480546100c9906101d1565b600180546100c9906101d1565b600380546100c9906101d1565b600580546100c9906101d1565b6000602080835283518082850152825b818110156101aa5785810183015185820160400152820161018e565b818111156101bb5783604083870101525b50601f01601f1916929092016040019392505050565b600181811c908216806101e557607f821691505b6020821081141561020657634e487b7160e01b600052602260045260246000fd5b5091905056fea264697066735822122070fe31612767ccc5ece414e6fb6db721a8cae95961a5be5abdd6c66bf1a6d4e664736f6c63430008040033a2646970667358221220e03f8c523cc03c6b9a8b5c564ad58bdd9380b9e78c0ac0c111b8771cd06bd2e964736f6c63430008040033",
  "linkReferences": {},
  "deployedLinkReferences": {}
}